:020000040800F2
:1000000068070020A1100008990800089B08000854
:100010009F080008A3080008A708000800000000C7
:10002000000000000000000000000000AB08000815
:10003000AD08000800000000AF080008B108000883
:10004000BB100008BB100008BB1000089B0D000887
:10005000BB100008BB100008BB100008BB10000854
:10006000BB100008BB100008BB100008BB10000844
:10007000BB100008BB100008BB100008BB10000834
:10008000BB100008BB100008BB100008BB10000824
:10009000BB100008BB100008BB100008BB10000814
:1000A000BB100008BB100008BB100008BB10000804
:1000B000BB1000080F0E0008BB100008BB100008A2
:1000C000BB100008BB100008BB100008BB100008E4
:1000D000BB1000085710000865100008BB1000088E
:1000E000BB100008BB100008BB10000800F002F8AD
:1000F00000F03CF80AA090E8000C82448344AAF186
:100100000107DA4501D100F031F8AFF2090EBAE883
:100110000F0013F0010F18BFFB1A43F0010318473B
:100120004838000068380000103A24BF78C878C109
:10013000FAD8520724BF30C830C144BF04680C60ED
:10014000704700000023002400250026103A28BF35
:1001500078C1FBD8520728BF30C148BF0B60704739
:10016000002070471FB51FBD10B510BD03F0CCFBBC
:100170001146FFF7F7FF00F03CFB03F0EAFB03B486
:10018000FFF7F2FF03BC00F0B9FE00000AE000BF79
:10019000F949098811F0400FFAD00178F64A121D8A
:1001A0001180401C01780029F1D1704710B5F34847
:1001B000FFF7ECFF002404E00020F0490855601C24
:1001C000C4B2EF4800788442F6DB0020EC490870A6
:1001D00000F08EFD10BD10B5EAA003F011FB4FF446
:1001E000FA7000F059FEEAA003F00AFB4FF4FA702F
:1001F00000F052FEE8A1E14803F042FBE749086045
:100200000EE0FFF7D3FFE2A003F0FAFA4FF4FA7022
:1002100000F042FEE0A1D94803F032FBDF4908605C
:10022000DE4800680028ECD0FFF7C0FFDCA003F038
:10023000E7FA4FF4FA7000F02FFEDCA003F0E0FACA
:100240004FF4FA7000F028FEDBA1CC4803F018FB55
:10025000D24908600EE0FFF7A9FFD4A003F0D0FA5E
:100260004FF4FA7000F018FED3A1C44803F008FB65
:10027000CA490860C94800680028ECD0FFF796FF1B
:10028000D1A003F0BDFA4FF4FA7000F005FED1A141
:10029000BA4803F0F5FAC14908600EE0FFF786FF9F
:1002A000C9A003F0ADFA4FF4FA7000F0F5FDC9A152
:1002B000B24803F0E5FAB9490860B8480068002878
:1002C000ECD0FFF773FFC6A003F09AFA4FF4FA7070
:1002D00000F0E2FDC6A1A94803F0D2FAAF490860D8
:1002E0000EE0FFF763FFBEA003F08AFA4FF4FA7046
:1002F00000F0D2FDBEA1A14803F0C2FAA7490860F0
:10030000A64800680028ECD0FFF750FFBBA003F020
:1003100077FA4FF4FA7000F0BFFD9FA1974803F001
:10032000AFFA9E4908600EE0FFF740FFB3A003F06C
:1003300067FA4FF4FA7000F0AFFD97A18F4803F011
:100340009FFA96490860954800680028ECD0FFF7AE
:100350002DFFAEA003F054FA4FF4FA7000F09CFDAC
:100360008DA1864803F08CFA8C4908600EE0FFF7F7
:100370001DFFA6A003F044FA4FF4FA7000F08CFDC4
:1003800085A17E4803F07CFA8449086083480068B0
:100390000028ECD0FFF70AFFA0A003F031FA4FF4D9
:1003A000FA7000F079FD7CA1744803F069FA7B498A
:1003B00008600EE0FFF7FAFE98A003F021FA4FF470
:1003C000FA7000F069FD74A16C4803F059FA7349A2
:1003D0000860724800680028ECD0FFF7E7FE95A09F
:1003E00003F00EFA6CA1654803F04AFA6B49086005
:1003F0000EE0FFF7DBFE8FA003F002FA4FF4FA7075
:1004000000F04AFD64A15D4803F03AFA63490860D0
:10041000624800680028ECD0FFF7C8FE89A003F00E
:10042000EFF95DA1554803F02BFA5C4908600EE036
:10043000FFF7BCFE83A003F0E3F94FF4FA7000F07D
:100440002BFD55A14D4803F01BFA54490860534851
:1004500000680028ECD0FFF7A9FE7DA003F0D0F9DA
:100460004FF4FA7000F018FD4BA1444803F008FA6D
:100470004A4908600EE0FFF799FE75A003F0C0F945
:100480004FF4FA7000F008FD43A13C4803F0F8F97E
:1004900042490860414800680028ECD070A1374804
:1004A00003F0EEF93D490860002406E03B4801688E
:1004B000A01C095C6B4A1154641C172CF6DBFFF777
:1004C00075FE69A003F09CF94FF4FA7000F0E4FCAB
:1004D00031A12A4803F0D4F9304908600EE0FFF753
:1004E00065FE61A003F08CF94FF4FA7000F0D4FCC3
:1004F00029A1224803F0C4F9284908602748006868
:100500000028ECD0FFF752FE5BA003F079F94FF41E
:10051000FA7000F0C1FC20A1184803F0B1F91F499E
:1005200008600EE05FA1154803F0AAF91B490860B6
:100530005FA1124803F0A4F961490860642000F04B
:10054000ABFC1648006818B95D4800680028E9D07F
:100550004FF4FA7000F0A0FC4FF4FA7000F09CFC2D
:100560004FF4FA7000F098FC4FF4FA7000F094FC2D
:10057000FFF71CFE10BD000000380140A400002061
:10058000280000204154453026570D0A0000000085
:1005900041540D0A000000004F4B000000000020F5
:1005A00041542B4353510D0A0000000041542B438A
:1005B00050494E3F0D0A00002B4350494E3A2052FD
:1005C00045414459000000002041542B4352454707
:1005D0003F0D0A002B435245473A20302C31000092
:1005E0002041542B43475245473F0D0A000000006D
:1005F0002B43475245473A20302C310041542B5170
:100600004944454143540D0A0000000041542B5118
:10061000494647434E543D300D0A000041542B518A
:1006200049435347503D312C22434D4E4554220DF2
:100630000A00000041542B51495245474150500D8A
:100640000A00000041542B51494143540D0A000057
:1006500041542B5143454C4C4C4F433D310D0A0006
:100660003A0000004000002041542B5149444E53B1
:1006700049503D300D0A000041542B51494F50451F
:100680004E3D22544350222C223130332E34342E0E
:100690003134352E323437222C2232383138302260
:1006A0000D0A0000434F4E4E454354204F4B00006F
:1006B000414C524541445920434F4E4E454354000E
:1006C0000400002070B50546AFF27C0003F098F8F6
:1006D0004FF4FA7000F0E0FBAFF244115E4803F013
:1006E000CFF85E49086010E0FFF760FDAFF2A000B0
:1006F00003F086F84FF4FA7000F0CEFBAFF2681109
:10070000554803F0BDF85549086054480068002872
:10071000EAD0AFF2B401504803F0B2F84F49086094
:10072000002407E04D480168A01C095C4C4A1154A4
:10073000601CC4B2172CF5DBFFF738FD49A003F0AD
:100740005FF8642000F0A8FB284603F059F8642005
:1007500000F0A2FB1A21464801F0EAF900BF40214F
:10076000434801F053FA0028F9D0642000F094FBCC
:1007700040A1394803F084F83849086008E03DA1F9
:10078000354803F07DF8354908600A2000F084FB05
:10079000324800680028F2D0642000F07DFBFFF7AB
:1007A00005FD36A003F02CF837A12B4803F068F8BC
:1007B0002A49086016E034A1274803F061F8274968
:1007C000086033A12548006803F05AF823490860FF
:1007D0002FA12248006803F053F8204908600A203E
:1007E00000F05AFB1D4800680028E4D0FFF7DEFC4B
:1007F00070BD00F015FB00F07BFB00F081F94FF4B9
:10080000165000F089FB4FF4E13000F0D4FBFFF705
:10081000E2FC00F0D3F940F27121072000F056FA13
:10082000C82000F039FB00F063FA14E053200C49B3
:1008300008703A204870002048764FF47A7000F033
:100840002BFB1448006808B9012000E00020114982
:10085000086000F04DFAE9E7A40000200000002045
:100860004000002041542B514953454E440D0A008D
:100870000044004053454E44204F4B0041542B51FF
:10088000495341434B0D0A002B51495341434B00FF
:100890002C00000080012142704700BFFEE700BF2E
:1008A000FEE700BFFEE700BFFEE7704770477047F6
:1008B0007047000010B500F02DFE012000F0AFFEE3
:1008C00000BF212000F069FE0028FAD0102002F0BD
:1008D00019F9022002F002F9002000F0C0FE002009
:1008E00000F0CFFE4FF4806000F0C2FE4FF46011C4
:1008F000002000F097FE012000F0A0FE00BF39208C
:1009000000F04BFE0028FAD0022000F09AFE00BF53
:1009100000F0A0FE0828FBD101211D2000F064FF9B
:1009200010BD0CB50020019000906C48006840F4A8
:1009300080306A49086000BF6848006800F40030F1
:1009400000900198401C0190009818B90198B0F5EA
:10095000A06FF1D16148006810F4003F02D001207F
:10096000009001E0002000900098012842D15C48EE
:10097000006840F010005A4908600846006820F0FE
:10098000030008600846006840F002000860534811
:1009900040685249486008464068486008464068D8
:1009A00040F4806048600846406820F47C1048604D
:1009B0000846406840F4E81048600846006840F087
:1009C0008070086000BF4548006810F0007FFAD0D2
:1009D0004248406820F003004049486008464068AB
:1009E00040F00200486000BF3C48406800F00C0046
:1009F0000828F9D10CBD10B5FFF793FF10BD10B555
:100A00003648006840F001003449086008464068F4
:100A10003449084031494860084600683249084076
:100A20002E4908600846006820F4802008600846C7
:100A3000406820F4FE0048604FF41F008860FFF714
:100A4000DAFF4FF000602949086010BD10B50021A1
:100A500000200022214B5B6803F00C0121B1042926
:100A600006D0082928D107E0214B224C236027E03B
:100A70001F4B204C236023E0184B5B6803F470107D
:100A8000164B5B6803F48032022303EB904022B9DB
:100A9000194B4343174C23600DE0104B5B6813F474
:100AA000003F04D0144B4343124C236003E0104B2F
:100AB0004343104C236003E00D4B0E4C236000BFFA
:100AC00000BF064B5B68C3F303130C4CE15C094B9E
:100AD0001B68CB40074C236010BD00000010024093
:100AE000002002400000FFF8FFFFF6FE08ED00E0E6
:100AF00000127A000800002000093D000C000020D0
:100B000008B501210C2000F06FFE0120ADF80000B7
:100B100010208DF8030003208DF802006946254857
:100B200000F0ACFB0121234800F053FC0120ADF89C
:100B3000000010208DF8030003208DF802006946A4
:100B40001D4800F09BFB0220ADF8000048208DF806
:100B500003006946184800F091FB08BD08B5012163
:100B6000082000F041FE4FF40070ADF800001020A6
:100B70008DF8030003208DF8020069460E4800F04E
:100B80007DFB4FF400710C4800F023FC4FF48060B3
:100B9000ADF8000010208DF8030003208DF802004E
:100BA0006946054800F06AFB4FF48061024800F096
:100BB00012FC08BD00080140000C014000B587B0E0
:100BC00001214FF4017000F00FFE4FF4004000F0DF
:100BD00072FD1020ADF8040000208DF8070001A977
:100BE000384800F04BFB2020ADF8040000208DF8C1
:100BF000070001A9334800F041FB8020ADF8040054
:100C000000208DF8070001A92E4800F037FB2E4880
:100C100002F042FA002002908DF80C008DF80D00D1
:100C20004FF4602004900020059001208DF81800FA
:100C300002A9254802F057FA0121234802F07FFA61
:100C4000214802F09EFA00BF1F4802F09FFA0028D8
:100C5000FAD11D4802F0A4FA00BF1B4802F0A5FA21
:100C60000028FAD107B000BD10B5044607230122C1
:100C70002146154802F0CFFA0121134802F09FFAED
:100C800000BF0221104802F00BFC0028F9D00E48EA
:100C900002F028FB10BD2DE9F04107460C46002567
:100CA000002608E03846FFF7DFFF0544052000F086
:100CB000F3F8701CC6B2A642F4DBB5FBF4F080B2C8
:100CC000BDE8F081000801400024014070B50546F0
:100CD0000C4645F2555002F007FC284602F007FC8E
:100CE000204602F007FC02F008FC02F00BFC70BD8D
:100CF00010B502F002FC10BD08B503208DF800000D
:100D00008DF8010000208DF8020001208DF803000D
:100D1000684600F0EAF908BD10B501214FF0C05057
:100D200000F06FFD012002F0ACFC02F005FD012097
:100D300000F0E0FC00BF612000F02FFC0028FAD09A
:100D40004FF4007000F0D9FC012000F0DCFC02F050
:100D50004FFC02F045FC0121022002F0E5FB02F00D
:100D60003FFC49F6404002F015FC02F039FCFFF769
:100D7000C3FF02F0F9FB841C204602F019FC02F0CC
:100D80002FFC10BD70B5044602F0EEFB0519284695
:100D900002F00EFC02F024FC70BD10B5022002F03F
:100DA0004BFC28B1022002F057FC0220FFF7EAFFBB
:100DB00010BD00007FB505460C460121022000F061
:100DC00020FDADF80850ADF804400020ADF80A0051
:100DD000ADF8060001A9114801F046F801221146BC
:100DE0000E4801F0B8FB1D208DF8000000208DF8A2
:100DF000010003208DF8020001208DF803006846F1
:100E000000F073F90121054801F08AFB7FBD10B5A0
:100E10000121024801F04DFE10BD00000004004019
:100E200010B56FF0040000F0ABF92D4800682D49B3
:100E3000B0FBF1F02C4908700846007800EB400147
:100E4000C1EBC0104FF6FF7101EAC00027490880CE
:100E500010BD0146244A12784A434FF0E0235A61FC
:100E600000229A611A46126942F001021A6100BF1B
:100E70004FF0E022106910F0010F02D010F4803F13
:100E8000F6D04FF0E022126922F001024FF0E02389
:100E90001A6100229A6170470146144A12884A4337
:100EA0004FF0E0235A6100229A611A46126942F01B
:100EB00001021A6100BF4FF0E022106910F0010F2B
:100EC00002D010F4803FF6D04FF0E022126922F0F9
:100ED00001024FF0E0231A6100229A61704700007E
:100EE0000800002000127A001C0000201E000020D4
:100EF00010B54FF4A06000F0F3F810BD014600BF3C
:100F0000704700BF614A128812F0400FFAD0C2B297
:100F10005E4B1B1D1A80704710B586B00446012138
:100F200044F2040000F060FC594800F0C5FC4FF4A6
:100F30000070ADF8140003208DF8160018208DF80D
:100F4000170005A9534800F099F94FF48060ADF8F7
:100F5000140048208DF8170005A94E4800F08EF9BE
:100F600025208DF8000003208DF801008DF8020087
:100F700001208DF80300684600F0B7F801940020C6
:100F8000ADF80800ADF80A00ADF80C00ADF810009F
:100F90000C20ADF80E0001A93D4800F0D0FC012264
:100FA00040F225513A4800F062FD0121384800F036
:100FB00052FD06B010BD10B586B0044601210420D4
:100FC00000F012FC0121480400F01BFC2F4800F047
:100FD00073FC0420ADF8140003208DF816001820CF
:100FE0008DF8170005A92B4800F048F90820ADF846
:100FF000140004208DF8170005A9264800F03EF9DA
:1010000026208DF8000000208DF8010001208DF8C9
:1010100002008DF80300684600F067F80194002094
:10102000ADF80800ADF80A00ADF80C00ADF81000FE
:101030000C20ADF80E0001A9144800F080FC01223C
:1010400040F22551114800F012FD01210F4800F037
:1010500002FD06B010BD10B540F225510C4800F05D
:10106000EBFD10BD10B540F22551084800F0E4FD3D
:1010700058B1064800F060FDC1B207480278007818
:10108000401C054B18700548815410BD00440040B9
:10109000003801400008014028000020A400002082
:1010A0000948804709480047FEE7FEE7FEE7FEE7FC
:1010B000FEE7FEE7FEE7FEE7FEE7FEE70448054938
:1010C000054A064B70470000B5080008ED0000080F
:1010D00068010020680700206803002068030020E2
:1010E00031490143314A1160704770B50021002336
:1010F0000F22C4780CB32D4C246804F4E064C4F5CA
:10110000E064210AC1F10403CA40447804FA03F1FF
:101110008478144021430901254C0678A1550478B0
:1011200004F01F050124AC4005786D114FF0E02656
:1011300006EB8505C5F8004109E0047804F01F05B9
:101140000124AC401B4D0678761145F8264070BD51
:10115000194A0A400243154B1B1F1A60704739B1E8
:10116000124A121D12680243104B1B1D1A6006E042
:101170000E4A121D126882430C4B1B1D1A607047E9
:10118000042808D14FF0E021096941F004014FF033
:10119000E022116107E04FF0E021096921F004012C
:1011A0004FF0E022116170470000FA050CED00E0FD
:1011B00000E400E080E100E080FFFF1F10B504467E
:1011C000CA48844208D10121042000F027FB0021F5
:1011D000042000F023FB46E0C548844208D10121E9
:1011E000082000F01BFB0021082000F017FB3AE06C
:1011F000C048844208D10121102000F00FFB0021DB
:10120000102000F00BFB2EE0BB48844208D10121E6
:10121000202000F003FB0021202000F0FFFA22E054
:10122000B648844208D10121402000F0F7FA00219D
:10123000402000F0F3FA16E0B148844208D10121C1
:10124000802000F0EBFA0021802000F0E7FA0AE0AD
:10125000AC48844207D10121801500F0DFFA00215B
:10126000A01500F0DBFA10BD10B50121084600F012
:10127000D5FA0021012000F0D1FA10BD2DE9F0418E
:10128000024600250026002000230024002791F8B4
:1012900003C00CF00F0591F803C01CF0100F03D031
:1012A00091F802C04CEA050591F800C0BCF1000FAE
:1012B00031D0146800202BE04FF0010C0CFA00F341
:1012C000B1F800C00CEA03069E4220D183004FF023
:1012D0000F0C0CFA03F7BC4305FA03FC4CEA0404B8
:1012E00091F803C0BCF1280F06D14FF0010C0CFAA5
:1012F00000FCC2F814C00AE091F803C0BCF1480F2A
:1013000005D14FF0010C0CFA00FCC2F810C0401CD3
:101310000828D1D31460B1F800C0BCF1FF0F34DD50
:10132000546800202EE000F1080C4FF0010808FA84
:101330000CF3B1F800C00CEA03069E4221D18300F1
:101340004FF00F0C0CFA03F7BC4305FA03FC4CEA10
:10135000040491F803C0BCF1280F05D100F1080C7A
:1013600008FA0CF8C2F8148091F803C0BCF1480FD9
:1013700007D100F1080C4FF0010808FA0CF8C2F888
:101380001080401C0828CED35460BDE8F0814FF691
:10139000FF710180022181700421C17070470246F3
:1013A000002093680B4201D0012000E0002070472C
:1013B0000146886880B2704702460020D3680B421D
:1013C00001D0012000E0002070470146C86880B2CB
:1013D000704701617047416170470AB1016100E0E7
:1013E00041617047C16070474FF480320A438261A7
:1013F0008161826182698269704702460020424BA6
:1014000018684FF68073184040EA021008433E4BBC
:10141000186070473D49C8617047F0B50A4600231F
:1014200000240021002500F00046B6F1004F02D153
:10143000354EF16901E0344E7168C0F3034583B263
:1014400000F44016B6F5401F08D121F070612E4E11
:10145000766826F070662C4F7E6012E000F48016ED
:10146000B6F5801F06D1032606FA05F4A14341F024
:10147000706106E0460D360103FA06F6B14341F00D
:10148000706122B1460D360103FA06F6314300F0D1
:101490000046B6F1004F02D11B4EF16101E01A4E39
:1014A0007160F0BD30B500228B071C0F0F2303FACB
:1014B00004F2154B08338C1053F824309343124C2C
:1014C00008348D1044F8253023468C1053F824300E
:1014D0008C07240F00FA04F423430B4C08348D10BE
:1014E00044F8253030BD0A490860704700080140C3
:1014F000000C0140001001400014014000180140A0
:10150000001C01400020014000000140000020427A
:10151000DC002042DD48006840F00100DB49086043
:1015200008464068DA490840D849486008460068DB
:10153000D8490840D54908600846006820F4802052
:1015400008600846406820F4FE0048604FF41F0021
:1015500088607047CD49096821F48031CB4A116019
:101560001146096821F480211160B0F5803F03D055
:10157000B0F5802F0ED106E0C449096841F48031EE
:10158000C24A116007E0C149096841F4A021BF4A7D
:10159000116000E000BF00BF704710B50146002297
:1015A000002300204A11012A02D1B84C236806E02A
:1015B000022A02D1B54C236A01E0B44C636A01F0FF
:1015C0001F02012494401C4201D0012000E00020B1
:1015D00010BD38B5002000900024002500BF312048
:1015E000FFF7DBFF05460098401C00900098B0F51F
:1015F000A06F01D0002DF2D03120FFF7CEFF08B14F
:10160000012400E00024204638BD014600209F4A06
:10161000106820F0F80040EAC100106070479E4951
:101620000860704702460020984B586820F47C10F0
:1016300042EA01031843954B586070479649086683
:10164000704701460020914A506820F0030008438B
:10165000506070478D48406800F00C0070470146AC
:1016600000208A4A506820F0F0000843506070471C
:1016700001460020854A506820F4E060084350602D
:10168000704701460020814A506820F4605040EACB
:10169000C1005060704729B17C4A527A02437B4BAB
:1016A0005A7204E0794A527A8243784B5A727047F0
:1016B0007A490860704701460020744A506820F457
:1016C00040400843506070470021754A11706F4ACE
:1016D00082F82010012802D0042808D103E001215B
:1016E0006F4A117004E005216D4A117000E000BFDF
:1016F00000BF70476B49086070476449096A01433D
:10170000624A11627047674944390860704730B5D2
:1017100000210022002400235C4D6D6805F00C01BF
:1017200021B1042905D0082923D105E05E4D0560CB
:1017300022E05D4D05601FE0544D6D6805F47012A8
:10174000524D6D6805F48034022505EB92421CB9B8
:10175000564D554305600BE04C4D6D6815F4003F48
:1017600003D0524D5543056002E04F4D554305608F
:1017700002E04D4D056000BF00BF444D6D6805F0AF
:10178000F00109094A4D6B5C0568DD4045603F4D3D
:101790006D6805F4E061090A454D6B5C4568DD4004
:1017A00085603A4D6D6805F46051C90A404D6B5C27
:1017B0004568DD40C560354D6D6805F44041890BD5
:1017C0003C4D6B5CC568B5FBF3F5056130BD29B1D7
:1017D0002E4A526902432D4B5A6104E02B4A52694A
:1017E00082432A4B5A61704729B1284A92690243C1
:1017F000264B9A6104E0254A92698243234B9A6101
:10180000704729B1214AD2690243204BDA6104E0D2
:101810001E4AD26982431D4BDA61704729B11B4AC7
:10182000D2680243194BDA6004E0184AD268824356
:10183000164BDA60704729B1144A12690243134B00
:101840001A6104E0114A12698243104B1A61704711
:1018500014494039086070470F49C86470470B4904
:10186000C87170470948406A40F080700749486273
:10187000704701460020054A92680A4201D00120C3
:1018800000E0002070470149887270470010024054
:101890000000FFF8FFFFF6FE00004242D80042427F
:1018A000201002408004424200127A0000093D00EC
:1018B000290000203900002010B50446FB4884426E
:1018C00009D101218803FFF7A9FF00214FF48040CF
:1018D000FFF7A4FF32E0F648844209D10121480411
:1018E000FFF7A9FF00214FF40030FFF7A4FF25E028
:1018F000F048844209D101218804FFF79CFF0021B0
:101900004FF48020FFF797FF18E0EB48844209D19D
:101910000121C804FFF78FFF00214FF40020FFF7DB
:101920008AFF0BE0E548844208D101210805FFF752
:1019300082FF00214FF48010FFF77DFF10BD2DE9DD
:10194000F04786B005460E460024A24600BFA146D9
:101950000027B08900B100BF2F462C8A4CF6FF70DB
:101960000440F08804432C82AC894EF6F310044006
:10197000B08831890843718908430443AC81AC8A3B
:101980004FF6FF400440B0890443AC8201A8FFF742
:10199000BEFEC648874202D1DDF810A001E0DDF8A6
:1019A0000CA0A88910F4004F08D00AEBCA0000EB85
:1019B0000A1031684900B0FBF1F807E00AEBCA00F1
:1019C00000EB0A1031688900B0FBF1F86420B8FB25
:1019D000F0F004012009642101FB1089A88910F4AA
:1019E000004F08D0322000EBC900B0FBF1F000F04E
:1019F0000700044308E0322000EB09106421B0FB2B
:101A0000F1F000F00F0004432C8106B0BDE8F08730
:101A10004FF41651016000218180C18001810C21A9
:101A2000418100218181704710B502460020108A53
:101A30004FF2FF0318400B884C8823438C882343C4
:101A4000CC8823431843108210BD002101804180BF
:101A50008180C180704721B1828942F40052828125
:101A600004E082894DF6FF731A4082817047F0B519
:101A700003460024002600250020A1F510676A3FD8
:101A800000D100BF1846C1F3421401F01F06012720
:101A900007FA06F5012C01D10C3004E0022C01D12B
:101AA000103000E014301AB107682F43076002E0DD
:101AB0000768AF430760F0BD1AB1838A0B43838286
:101AC00002E0838A8B4383827047028A4FF6F07369
:101AD0001A400282028A0A430282704782894FF2C8
:101AE000FF731A40828182890A438281704721B143
:101AF000828942F00202828104E082894FF6FD73FE
:101B00001A4082817047028A4FF6DF731A400282C0
:101B1000028A0A430282704721B1028A42F480425B
:101B2000028204E0028A4BF6FF731A400282704779
:101B3000C1F308028280704701468888C0F308001C
:101B40007047818941F0010181817047028BD2B2D7
:101B50000283028B42EA012202837047028B02F465
:101B60007F420283028B0A430283704721B1828A3B
:101B700042F02002828204E0828A4FF6DF731A402C
:101B80008282704721B1828A42F01002828204E090
:101B9000828A4FF6EF731A408282704721B1828A9F
:101BA00042F00802828204E0828A4FF6F7731A40FC
:101BB0008282704721B1828942F40042828103E02F
:101BC0008289C2F30E028281704721B1828A42F477
:101BD0000062828204E0828A4FF2FF731A4082829E
:101BE0007047828A4FF6FB731A408282828A0A43C8
:101BF0008282704721B1828A42F00202828204E02E
:101C0000828A4FF6FD731A40828270470246002096
:101C1000B1F5007F00D100BF13880B4201D0012035
:101C200000E00020704701F40072B2F5007F00D19F
:101C300000BFCA430280704770B5024600240023EB
:101C400000250020A1F510666A3E00D100BFC1F357
:101C5000421501F01F03012606FA03F3012D02D1FC
:101C60009689334006E0022D02D1168A334001E006
:101C7000968A33400C12012606FA04F41688344082
:101C800013B10CB1012000E0002070BD10B500229E
:101C90000023A1F510646A3C00D100BF0A120124A0
:101CA0009440A3B2DC43048010BD00000038014022
:101CB0000044004000480040004C004000500040FC
:101CC00010B50446FE48844208D10121C014FFF734
:101CD000A5FD0021E014FFF7A1FDC4E0B4F1804FA1
:101CE00008D101210846FFF7A6FD00210120FFF7DA
:101CF000A2FDB8E0F348844208D101210220FFF799
:101D00009AFD00210220FFF796FDACE0EE488442E8
:101D100008D101210420FFF78EFD00210420FFF7E8
:101D20008AFDA0E0E948844208D101210820FFF79C
:101D300082FD00210820FFF77EFD94E0E448844204
:101D400008D101211020FFF776FD00211020FFF7B8
:101D500072FD88E0DF48844208D101212020FFF78E
:101D60006AFD00212020FFF766FD7CE0DA4884420E
:101D700008D101214014FFF751FD00216014FFF745
:101D80004DFD70E0D548844209D10121C804FFF718
:101D900045FD00214FF40020FFF740FD63E0D048EF
:101DA000844209D101210805FFF738FD00214FF4D5
:101DB0008010FFF733FD56E0CA48844209D1012163
:101DC0004805FFF72BFD00214FF40010FFF726FD1B
:101DD00049E0C548844208D101214020FFF72BFD8E
:101DE00000214020FFF727FD3DE0C048844208D194
:101DF00001218020FFF71FFD00218020FFF71BFD40
:101E000031E0BB48844208D101218015FFF713FD62
:101E10000021A015FFF70FFD25E0B648844209D147
:101E200001210804FFF7FAFC00214FF48030FFF78E
:101E3000F5FC18E0B048844209D101214804FFF7BD
:101E4000EDFC00214FF40030FFF7E8FC0BE0AB485D
:101E5000844208D101218804FFF7E0FC00214FF4FF
:101E60008020FFF7DBFC10BD00220288944B9842D3
:101E70000ED0994B98420BD0B0F1804F08D0914BC7
:101E8000984205D0904B984202D0904B984204D192
:101E90004FF68F731A404B881A438D4B984207D0E8
:101EA0008C4B984204D04FF6FF431A40CB881A431C
:101EB00002808B8883850B880385814B98420BD0E9
:101EC000854B984208D08B4B984205D08A4B98425C
:101ED00002D08A4B984201D10B7A03860123838278
:101EE000704770B5002400220023058C4FF6FE7663
:101EF00035400584028C8388048B4FF68F752C4007
:101F0000B51E2C400D882C43751E2A400D892A438E
:101F10004D882A436A4DA8420BD06F4DA84208D085
:101F2000744DA84205D0744DA84202D0734DA8420A
:101F300013D14FF6F7752A404D892A434FF6FB75AA
:101F40002A408D882A434FF6FF652B404FF6FF55F8
:101F50002B408D892B43CD892B4383800483CD88EF
:101F60008586028470BD70B5002400220023058C94
:101F70004FF6EF7635400584028C8388048B48F653
:101F8000FF752C404FF6FF452C400D884FF6FF762D
:101F900006EA05252C434FF6DF752A400D8906EA2F
:101FA00005152A434D8806EA05152A43444DA842E3
:101FB00002D0494DA8421DD14FF67F752A404D8968
:101FC0004FF6FF7606EA05152A434FF6BF752A40FD
:101FD0008D8806EA05152A434FF6FF352B404FF250
:101FE000FF752B408D8906EA85052B43CD8906EACE
:101FF00085052B4383800483CD880587028470BDCB
:1020000070B5002400220023058C4FF6FF66354092
:102010000584028C8388848B4FF68F752C404FF695
:10202000FC752C400D882C434FF6FF552A400D8936
:102030004FF6FF7606EA05252A434D8806EA052570
:102040002A431F4DA84202D0234DA8421DD14FF272
:10205000FF752A404D894FF6FF7606EA05252A438B
:102060004FF6FF352A408D8806EA05252A434EF6AD
:10207000FF752B404DF6FF752B408D8906EA05153F
:102080002B43CD8906EA05152B4383808483CD88B5
:102090008587028470BD70B5002200230024058C62
:1020A0004EF6FF7635400584038C8488828B48F693
:1020B000FF752A404FF6FF452A400D8820E00000BA
:1020C000002C01400004004000080040000C0040CB
:1020D000001000400014004000340140004C01405A
:1020E000005001400054014000180040001C004016
:1020F00000200040004001400044014000480140F1
:102100004FF6FF7606EA05252A434DF6FF752B406C
:102110000D8906EA05352B434D8806EA05352B4324
:10212000FA4DA84202D0FA4DA84208D14BF6FF75ED
:102130002C408D894FF6FF7606EA85152C43848066
:102140008283CD88A0F84050038470BD828B4FF20B
:10215000FF331A408283828B4FF6FF7303EA012319
:102160001A4382837047F0B50C46154600220021C1
:102170000026078C4EF6FF7C07EA0C070784828B4B
:10218000018C4FF6FF7707EA043640F6FF473A40E6
:102190004FF6FF7707EA05273A434FF6FF7707EA3E
:1021A00003373A43D94FB8420ED0D94FB8420BD07B
:1021B000B0F1804F08D0D74FB84205D0D64FB842C3
:1021C00002D0D64FB84206D14DF6FF77394046F4DB
:1021D0008057394305E047F6FF57394044F48057AC
:1021E000394382830184F0BD828B4FF6F3731A402A
:1021F0008283828B0A4382837047F0B50C46154672
:10220000002200210026078C4FF6FF6C07EA0C071E
:102210000784828B018C4FF6FF7707EA04264FF67E
:102220000C773A404FF6FF7707EA03172F433A43FC
:10223000B64FB8420ED0B64FB8420BD0B0F1804F77
:1022400008D0B44FB84205D0B34FB84202D0B34F14
:10225000B84206D14FF6FF57394046F480773943EC
:1022600005E04FF2FF57394044F4807739438283C9
:102270000184F0BD028B4FF2FF331A400283028BC0
:102280004FF6FF7303EA01231A4302837047F0B548
:102290000C461546002200210026078C4FF6EF7CE5
:1022A00007EA0C070784028B018C4FF6FF7707EAD9
:1022B000041640F6FF473A404FF6FF7707EA033728
:1022C0003A434FF6FF7707EA05273A438F4FB84264
:1022D0000ED08F4FB8420BD0B0F1804F08D08D4F49
:1022E000B84205D08C4FB84202D08C4FB84206D1CC
:1022F0004FF6DF77394046F01007394305E04FF6D7
:102300005F77394044F01007394302830184F0BD00
:10231000028B4FF6F3731A400283028B0A43028347
:102320007047F0B50C46154600220021068C4FF68A
:10233000FE773E400684028B018C4FF60C763240CD
:102340007E1C06EA03162E433243704EB0420ED076
:102350006F4EB0420BD0B0F1804F08D06D4EB042FE
:1023600005D06D4EB04202D06C4EB04206D14FF651
:10237000FD76314044F00106314305E04FF6F57635
:10238000314044F00106314302830184F0BD70B551
:1023900005460C465D4885420ED05D4885420BD00F
:1023A000B5F1804F08D05B48854205D05A48854238
:1023B00002D05A48854200D100E000BF208850B9C1
:1023C0002389A28861882846FFF7ABFFE188284669
:1023D000FFF79EFF25E0208804280AD12389A288E0
:1023E00061882846FFF753FFE1882846FFF742FF40
:1023F00017E0208808280AD12389A2886188284606
:10240000FFF7FBFEE1882846FFF7EEFE09E023898F
:10241000A28861882846FFF7A6FEE1882846FFF7D4
:1024200095FE70BD2DE9F04105460C4600260127BA
:10243000608808B9022600E00026A088012801D1A2
:10244000022700E001272088A0B92389A28861889B
:102450002846FFF766FFE1882846FFF759FF2389E2
:102460003A4631462846FFF712FFE1882846FFF733
:1024700001FF13E02389A28861882846FFF707FF40
:10248000E1882846FFF7F6FE23893A46314628467A
:10249000FFF747FFE1882846FFF73AFFBDE8F081E4
:1024A0000A884B881A438B881A43CB881A430B89B6
:1024B0001A434B891A438B891A43A0F8442070476A
:1024C0004FF6FF71818000210180C180418001723F
:1024D00070470021018041808180C180018141815C
:1024E0008181C1817047002101804180012181806B
:1024F0000021C180018170470021018041808180DD
:10250000C18001814181818170470000002C014020
:10251000003401400004004000080040000C00406E
:1025200021B1028842F00102028004E002884FF6E5
:10253000FE731A400280704731B1B0F8442042F473
:102540000042A0F8442005E0B0F84420C2F30E0297
:10255000A0F8442070471AB183890B43838102E0BD
:1025600083898B43838170478182704741EA0203EC
:10257000A0F8483070471AB183890B43838102E089
:1025800083898B438381704701894FF6F87211402C
:10259000018170470A46002101894FF68F73194067
:1025A00011430181704730B504460D462946204647
:1025B000FFF7F0FF208940F00700208130BD2DE9B2
:1025C000F04104460D4616461F46602D06D13B4697
:1025D000012231462046FFF75AFE05E03B46012224
:1025E00031462046FFF79DFE29462046FFF7D2FFE1
:1025F000208940F007002081BDE8F08130B50C460D
:1026000000210189C9B24FF6FF7505EA032515437C
:1026100025432943018130BD2DE9F04105460E4691
:1026200017469846002443463A4631462846FFF767
:10263000E5FF2C894FF6F870044044F007044FF68C
:102640008F70044044F070042C81BDE8F081F0B537
:1026500004460D4616461F463B463246294620464E
:10266000FFF7CCFF208940F480402081F0BD018538
:10267000828270470A46002101884FF68F73194005
:10268000114301807047F0B50C4615461E460021E7
:10269000002200230189028B038C4FF6F877394022
:1026A00021434FF6FC473A4040F201173A434FF6B8
:1026B000DD773B404FF6FF7707EA06172F433B4392
:1026C000018102830384F0BD0A460021018B4FF68D
:1026D0008F7319401143018370470A460021018B13
:1026E00048F6FF7319404FF6FF7303EA02231943BC
:1026F000018370470A460021818B4FF68F73194082
:102700001143818370470A460021818B48F6FF738D
:1027100019404FF6FF7303EA022319438183704780
:1027200021B1028842F08002028004E002884FF664
:102730007F731A400280704721B1828842F0040200
:10274000828004E082884FF6FB731A4082807047D3
:1027500021B1828842F00802828004E082884FF62C
:10276000F7731A408280704721B1828842F00102DB
:10277000828004E082884FF6FE731A4082807047A0
:102780000A460021018B4FF6F7731940114301836C
:1027900070470A460021018B4FF2FF7319404FF634
:1027A000FF7303EA02231943018370470A4600219D
:1027B000818B4FF6F77319401143818370470A46A6
:1027C0000021818B4FF2FF7319404FF6FF7303EA2C
:1027D00002231943818370470A460021018B4FF67B
:1027E000FB7319401143018370470A460021018B96
:1027F0004FF6FF3319404FF6FF7303EA02231943E4
:10280000018370470A460021818B4FF6FB73194004
:102810001143818370470A460021818B4FF6FF33B5
:1028200019404FF6FF7303EA02231943818370476F
:102830000A460021018B4FF67F7319401143018333
:1028400070470A460021018BC1F30E014FF6FF735A
:1028500003EA02231943018370470A460021818B52
:102860004FF67F7319401143818370470A46002158
:10287000818BC1F30E014FF6FF7303EA0223194364
:10288000818370470A460021018C4FF6FD73194081
:102890001143018470470A460021018C4FF6F773FB
:1028A00019401143018470470A460021018C4FF6FC
:1028B000DF7319404FF6FF7303EA021319430184D3
:1028C00070470A460021018C4FF67F7319404FF67E
:1028D000FF7303EA02131943018470470A4600217B
:1028E000018C4FF6FF5319404FF6FF7303EA0223A2
:1028F0001943018470470A460021018C4FF2FF738F
:1029000019404FF6FF7303EA02231943018470470D
:102910000A460021018C4DF6FF7319404FF6FF73F4
:1029200003EA023319430184704730B500230124C0
:102930008C40A3B2048C9C430484048C02FA01F5FD
:10294000ADB22C43048430BD30B5002304248C4048
:10295000A3B2048C9C430484048C02FA01F5ADB24A
:102960002C43048430BD70B5034600200024184673
:10297000183001258D40ACB21D8CA5431D8409B1D2
:10298000082909D100EB6100056825F07005056094
:102990000568154305600EE00D1FC5F34E0528447C
:1029A000056825F4E045056005684FF6FF7606EA00
:1029B00002263543056070BD21B1028842F0020253
:1029C000028004E002884FF6FD731A4002807047CF
:1029D00021B1028842F00402028004E002884FF62E
:1029E000FB731A400280704721B1828842F0800256
:1029F000828004E082884FF67F731A40828070479D
:102A000002884FF6F7731A40028002880A43028058
:102A1000704782884FF68F731A40828082880A43FB
:102A20008280704702894FF6F8731A40028102894A
:102A30000A430281704702894FF67F731A40028170
:102A400002890A43028170478184704781857047FB
:102A5000818670470187704781877047A0F84010D2
:102A6000704702884FF6FF431A40028002880A43EB
:102A7000028070470146888E70470146088F704774
:102A80000146888F70470146B1F840007047014603
:102A9000888C70470146088D704702460020138AD3
:102AA0000B4201D0012000E000207047CA4302829F
:102AB000704730B50246002000230024158A05EA3D
:102AC0000103958905EA010413B10CB1012000E06E
:102AD000002030BDCA43028270470000014600203A
:102AE000FE4A106800F03800084310607047FB4948
:102AF000096821F00801F94A11601146096801438B
:102B000011607047F549096821F01001F34A11601E
:102B100011460968014311607047F148EF49486068
:102B2000F04848607047EE48EC494860ED4848601E
:102B30007047EA48006940F08000E8490861704742
:102B4000E648006940F08000E449086170470420CD
:102B5000E249C96811F0010F01D001200EE0DF4900
:102B6000C96811F0040F01D0022007E0DB49C968F1
:102B700011F0100F01D0032000E00420704700B5D1
:102B800002460423FFF7E3FF034603E0FFF7DFFFFE
:102B90000346521E012B01D1002AF7D102B90523A9
:102BA000184600BD30B5044604254FF43020FFF729
:102BB000E6FF0546042D17D1C848006940F0020021
:102BC000C649086108464461006940F04000086158
:102BD0004FF43020FFF7D3FF0546C048006941F6A7
:102BE000FD710840BD490861284630BD10B5042478
:102BF0004FF43020FFF7C3FF0446042C16D1B7482A
:102C0000006940F00400B54908610846006940F0D9
:102C1000400008614FF43020FFF7B1FF0446AF4891
:102C2000006941F6FB710840AC490861204610BDBF
:102C300000B502460423FFF78AFF034603E0FFF7CF
:102C400086FF0346521E012B01D1002AF7D102B99B
:102C50000523184600BD10B504244FF43020FFF7BB
:102C6000E7FF0446042C16D19C48006940F004009C
:102C70009A4908610846006940F0400008614FF435
:102C80003020FFF7D5FF04469448006941F6FB71F8
:102C9000084092490861204610BD00208F49C9694B
:102CA00011F0020F01D0012000E00020704730B584
:102CB000A5250424FFF7F1FF00B100254FF43020D3
:102CC000FFF75DFF0446042C3AD1854883498860AC
:102CD000844888600846006940F020000861084682
:102CE000006940F0400008614FF43020FFF747FFD3
:102CF0000446042C1BD17948006941F6DF71084075
:102D0000764908610846006940F01000086176487D
:102D10000580E002FFF733FF0446052C10D06F4812
:102D2000006941F6EF7108406C49086108E0052C24
:102D300006D06A48006941F6EF71084067490861AA
:102D4000204630BD78B506460C460425002000908C
:102D5000E802FFF714FF0546042D24D15F480069FF
:102D600040F001005D4908613480E802FFF707FF89
:102D70000546042D10D1B01C0090200C009908804D
:102D8000E802FFF7FCFE05465448006941F6FE7173
:102D900008405249086106E05048006941F6FE715A
:102DA00008404E490861284678BD70B504460D4676
:102DB0000426F002FFF7E3FE0646042E11D1474831
:102DC000006940F00100454908612580F002FFF7E5
:102DD000D6FE06464148006941F6FE7108403F496B
:102DE0000861304670BD70B505460E460424E00209
:102DF000FFF7C5FE0446042C17D1394837498860CF
:102E0000384888600846006940F0100008612E804C
:102E1000E002FFF7B4FE0446052C06D02F480069F7
:102E200041F6EF7108402D490861204670BD2DE93B
:102E3000F04304464FF6FF763746B046B1460425C8
:102E4000E443E6B2C4F30727C4F307484FEA146922
:102E5000E802FFF794FE0546042D49D120481F499A
:102E60008860204888600846006940F010000861CA
:102E7000FF2E06D01C4808300680E802FFF77FFED0
:102E80000546042D08D1FF2F06D017480A300780C9
:102E9000E802FFF774FE0546042D0AD1B8F1FF0FD2
:102EA00007D011480C30A0F80080E802FFF767FE59
:102EB0000546042D0AD1B9F1FF0F07D00A480E309C
:102EC000A0F80090E802FFF75AFE0546052D0FD046
:102ED0000248006941F6EF71084007E00020024017
:102EE00023016745AB89EFCD00F8FF1F66490861F4
:102EF0002846BDE8F08330B5054604244FF4302061
:102F0000FFF73DFE0446042C41D160485E498860CD
:102F10005F4888600846006940F020000861084664
:102F2000006940F0400008614FF43020FFF727FEB1
:102F30000446042C22D15448006941F6DF71084050
:102F4000514908610846006940F0100008611DB150
:102F500000205049088002E0A5204E4908804FF427
:102F60003020FFF70CFE0446052C10D046480069BF
:102F700041F6EF7108404449086108E0052C06D08D
:102F80004148006941F6DF7108403F490861204629
:102F900030BDF0B505460E46174604243B483A4975
:102FA00088603B488860E002FFF7E9FD0446042C96
:102FB00019D13548006940F010003349086147F0E5
:102FC000F800304328433349891C0880E002FFF7AA
:102FD000D6FD0446052C06D02B48006941F6EF715A
:102FE0000840294908612046F0BD2748C06980088B
:102FF00070472548006A704700202349096811F08E
:10300000200F01D0012000E00020704729B11E4AA6
:10301000126902431C4B1A6104E01B4A1269824385
:10302000194B1A61704701460020012908D1164A40
:10303000D26912F0010F01D0012008E0002006E063
:10304000114AD2680A4201D0012000E000207047F6
:103050000D49C860704704200B49C96811F0010F81
:1030600001D001200EE00849C96811F0040F01D019
:10307000022007E00449C96811F0100F01D00320B5
:1030800000E0042070470000002002402301674553
:10309000AB89EFCD00F8FF1F10B50446FA48844213
:1030A00008D101214015FEF7B9FB00216015FEF79C
:1030B000B5FB17E0F548844208D101210015FEF761
:1030C000ADFB00212015FEF7A9FB0BE0F048844280
:1030D00008D10121C803FEF7A1FB00214FF40040F5
:1030E000FEF79CFB10BD30B502460020002350685F
:1030F000E84C20400D790C6844EA052420435060D8
:103100009068E54C2040D1E902542C434D7944EAC3
:10311000450420439060D06A20F470000C7C641E4B
:10312000E4B2234340EA0350D06230BD0021016085
:10313000017141718160C16001210174704721B149
:10314000826842F00102826003E0826822F001029C
:103150008260704721B1826842F48072826003E02D
:10316000826822F480728260704710B50023CBB26F
:103170001AB144681C43446002E044689C434460C4
:1031800010BD816841F00801816070470146002050
:103190008A6812F0080F01D0012000E0002070477B
:1031A000816841F0040181607047014600208A680F
:1031B00012F0040F01D0012000E00020704721B17F
:1031C000826842F4A002826003E0826822F4A002D6
:1031D00082607047014600208A6812F4800F01D097
:1031E000012000E00020704710B50A4600210023AE
:1031F000416821F46041531E41EA4331416010BDF2
:1032000021B1426842F40062426003E0426822F465
:10321000006242607047F0B504460D460020002170
:10322000092D11DDE068A5F10A0606EB4607072621
:1032300006FA07F18843A5F10A0606EB460603FAEB
:1032400006F10843E0600CE0206905EB450707261E
:1032500006FA07F1884305EB450603FA06F1084331
:103260002061072A0FDA606B561E06EB86071F26C1
:1032700006FA07F18843561E06EB860605FA06F1A4
:103280000843606322E00D2A0FDA206BD61F06EB9D
:1032900086071F2606FA07F18843D61F06EB860627
:1032A00005FA06F10843206310E0E06AA2F10D067A
:1032B00006EB86071F2606FA07F18843A2F10D06E2
:1032C00006EB860605FA06F10843E062F0BD21B17F
:1032D000826842F48012826003E0826822F48012E5
:1032E000826070470146C86C80B2704766484C30B7
:1032F0000068704721B1426842F48062426003E096
:10330000426822F480624260704721B1426842F410
:103310008052426003E0426822F48052426070476B
:103320000A460021816821F4E04111438160704721
:1033300021B1826842F40042826003E0826822F494
:1033400000428260704721B1826842F402128260BA
:1033500003E0826822F40212826070470146002076
:103360008A6812F4001F01D0012000E0002070479D
:10337000F0B504461546002000220026092911DD7B
:10338000E068A1F10A0707EB470C072707FA0CF2E0
:103390009043A1F10A0707EB470703FA07F210432E
:1033A000E0600CE0206901EB410C072707FA0CF202
:1033B000904301EB410703FA07F210432061A06B31
:1033C000C0F30156EF1C06F1010CA7EB0C0707EB4D
:1033D000870C1F2707FA0CF29043EF1C06F1010C33
:1033E000A7EB0C0707EB870701FA07F21043A0636E
:1033F000F0BD10B50A4600210023816B21F4401175
:10340000531E41EA0351816310BD08B500230093A8
:103410000090009B0B440093009B1A6008BD08B508
:10342000024600200090009201F12800009B184401
:1034300000900098006880B208BD0A4600214168EB
:10344000164B1940114341607047416282627047D8
:103450000A460021416821F01F0111434160704775
:1034600040B109490831096841F40001064A0832AF
:10347000116007E004490831096821F40001024A9B
:10348000083211607047000000240140002801400C
:10349000003C0140FFFEF0FFFDF7F1FFFFFD3FFFA5
:1034A0000246002013680B4201D0012000E00020FA
:1034B0007047CA430260704770B50246002000237F
:1034C00000240B125568CEB205EA060415681D42A9
:1034D00002D00CB1012000E0002070BD00220A12D1
:1034E000D3430360704700000E49086070470D49E0
:1034F000486070470B49886070474AF6AA2009491E
:10350000086070474CF6CC40064908607047014699
:103510000020044AD2680A4201D0012000E00020C5
:10352000704700000030004029B14F4A1288024322
:103530004D4B1A8004E04C4A128882434A4B1A8051
:1035400070474948001D008840F010004649091D99
:10355000088070474448001D00884FF6EF7108400E
:103560004149091D0880704700213F481C300188EF
:10357000001F008841EA0040704700B50246FFF78F
:10358000E0FF100C384918310880091D0A80FFF748
:10359000E1FF00BD00B50246FFF7D3FFC2F30340D1
:1035A000314908310880091D0A80FFF7D3FF00BDAB
:1035B00000B50246FFF7C5FF100C2B4920310880EB
:1035C000091D0A80FFF7C6FF00BD00202649103103
:1035D00009880907080B24491431098808437047F2
:1035E00000BF2148001D008810F0200FF9D070475F
:1035F0001D48001D00884FF6F77108401A49091D43
:10360000088000BF1848001D008810F0080FF9D08E
:10361000704701460020144A121D12880A4201D048
:10362000012000E0002070470F49091D09888143EF
:103630000D4A121D11807047014600200A4A121DD2
:1036400012880A40D0B2084A12880A4202D008B151
:10365000012000E0002070470349091D09888143CB
:10366000014A121D118070470028004010B5012149
:103670000807FEF7E0F800214FF08050FEF7DBF876
:1036800010BD294908627047274908617047014603
:103690000020264A106820F0E000084310607047C0
:1036A00023490860704710B5024600201F4B186878
:1036B00020F00300104318601E4B1B6843F0040306
:1036C0001C4C2360012901D130BF00E020BF194B01
:1036D0001B6823F00403174C236010BD13480068D7
:1036E00040F00400114908600846006840F00200FC
:1036F00008601048006840F004000E49086000BFF0
:1037000000BF30BF704701460020084A52680A4295
:1037100001D0012000E0002070470449096841EA17
:103720008001024A1160704700000E4200700040A4
:10373000A0000E4210ED00E010B50120FEF788F861
:103740000020FEF785F810BD2A4908607047294916
:10375000091F086070472749843108607047014697
:103760000020254A10884FF67F4210400843224A25
:1037700010807047014600201F4A10884FF6807263
:10378000104008431C4A1080704708B50022009280
:10379000194A2C3A0092009A02440092009A116051
:1037A00008BD08B501460020009013482C38009051
:1037B0000098084400900098008808BD0D489C308F
:1037C0000068C0B270470C480830008840F0010023
:1037D00009490831088070470648A0300068C0B227
:1037E000704705480830008840F00200024908315F
:1037F0000880704704860D422C6C00407047000022
:103800000FB4044910B503AA029800F04FF810BC99
:103810005DF814FB240000202DE9F0410E4604461B
:10382000002020622046E168884730B3252805D073
:10383000D4E901219047206A401CF2E7E168204664
:1038400000278847050018D0A5F14100192802D8A3
:1038500020354FF400673246294620462760FCF7A2
:103860007FFC40B1012804D0F61D26F0070608367B
:10387000D8E7361DD6E72846DAE7206ABDE8F081AA
:1038800030B505460B462A4613F8014B12F8010BDA
:1038900008B1A042F8D01CB1002802D06D1CF1E79D
:1038A000284630BD7047704770477047074B70B56A
:1038B0000D467B4400F011F80446284600F020F83D
:1038C00010B14FF0FF3070BD204670BD4DD6FFFFE8
:1038D00001694A1C02610878704700B58FB0CDE9D4
:1038E00001310021059105497944CDE903101146C4
:1038F0006846FFF791FF0FB000BD0000E5FFFFFF36
:10390000007B00F080007047754600F029F8AE4655
:1039100005006946534620F00700854618B020B5DB
:10392000FDF7CCFBBDE820404FF000064FF000074C
:103930004FF000084FF0000B21F00701AC46ACE857
:10394000C009ACE8C009ACE8C009ACE8C0098D46C4
:1039500070470446AFF300802046FCF710FC0000DF
:103960000048704708010020883900080000002046
:103970004000000028010008C8390008400000206D
:1039800028070000440100080000000000000000BB
:1039900000A24A040000000000000000010203042D
:1039A00006070809000000000000000000000000F9
:1039B00000000000000102030401020304060708DE
:0839C0000902040608000000E2
:04000005080000ED02
:00000001FF
